{
  "_format": "hh-sol-artifact-1",
  "contractName": "SimpleFlashLoan",
  "sourceName": "contracts/SimpleFlashLoan.sol",
  "abi": [
    {
      "inputs": [
        {
          "internalType": "address",
          "name": "_addressProvider",
          "type": "address"
        }
      ],
      "stateMutability": "nonpayable",
      "type": "constructor"
    },
    {
      "inputs": [],
      "name": "ADDRESSES_PROVIDER",
      "outputs": [
        {
          "internalType": "contract IPoolAddressesProvider",
          "name": "",
          "type": "address"
        }
      ],
      "stateMutability": "view",
      "type": "function"
    },
    {
      "inputs": [],
      "name": "POOL",
      "outputs": [
        {
          "internalType": "contract IPool",
          "name": "",
          "type": "address"
        }
      ],
      "stateMutability": "view",
      "type": "function"
    },
    {
      "inputs": [
        {
          "internalType": "address",
          "name": "asset",
          "type": "address"
        },
        {
          "internalType": "uint256",
          "name": "amount",
          "type": "uint256"
        },
        {
          "internalType": "uint256",
          "name": "premium",
          "type": "uint256"
        },
        {
          "internalType": "address",
          "name": "initiator",
          "type": "address"
        },
        {
          "internalType": "bytes",
          "name": "params",
          "type": "bytes"
        }
      ],
      "name": "executeOperation",
      "outputs": [
        {
          "internalType": "bool",
          "name": "",
          "type": "bool"
        }
      ],
      "stateMutability": "nonpayable",
      "type": "function"
    },
    {
      "inputs": [
        {
          "internalType": "address",
          "name": "_token",
          "type": "address"
        },
        {
          "internalType": "uint256",
          "name": "_amount",
          "type": "uint256"
        },
        {
          "internalType": "address",
          "name": "_routerA",
          "type": "address"
        },
        {
          "internalType": "address",
          "name": "_routerB",
          "type": "address"
        },
        {
          "internalType": "address",
          "name": "_tokenB",
          "type": "address"
        }
      ],
      "name": "requestFlashLoan",
      "outputs": [],
      "stateMutability": "nonpayable",
      "type": "function"
    },
    {
      "inputs": [
        {
          "internalType": "address",
          "name": "_token",
          "type": "address"
        }
      ],
      "name": "withdraw",
      "outputs": [],
      "stateMutability": "nonpayable",
      "type": "function"
    },
    {
      "stateMutability": "payable",
      "type": "receive"
    }
  ],
  "bytecode": "0x60c060405234801561001057600080fd5b50604051610e51380380610e5183398101604081905261002f916100d1565b80806001600160a01b03166080816001600160a01b031681525050806001600160a01b031663026b1d5f6040518163ffffffff1660e01b8152600401602060405180830381865afa158015610088573d6000803e3d6000fd5b505050506040513d601f19601f820116820180604052508101906100ac91906100d1565b6001600160a01b031660a0525050600080546001600160a01b03191633179055610101565b6000602082840312156100e357600080fd5b81516001600160a01b03811681146100fa57600080fd5b9392505050565b60805160a051610d1e6101336000396000818161010f0152818161050a015261082c01526000606c0152610d1e6000f3fe60806040526004361061004e5760003560e01c80630542975c1461005a5780631b11d0ff146100ab57806351cff8d9146100db5780637535d246146100fd578063bc8a711d1461013157600080fd5b3661005557005b600080fd5b34801561006657600080fd5b5061008e7f000000000000000000000000000000000000000000000000000000000000000081565b6040516001600160a01b0390911681526020015b60405180910390f35b3480156100b757600080fd5b506100cb6100c63660046108c3565b610151565b60405190151581526020016100a2565b3480156100e757600080fd5b506100fb6100f6366004610969565b610697565b005b34801561010957600080fd5b5061008e7f000000000000000000000000000000000000000000000000000000000000000081565b34801561013d57600080fd5b506100fb61014c36600461098b565b6107c8565b60008061016083850185610a30565b805160405163095ea7b360e01b81526001600160a01b039182166004820152602481018a905291925089169063095ea7b3906044016020604051808303816000875af11580156101b4573d6000803e3d6000fd5b505050506040513d601f19601f820116820180604052508101906101d89190610aad565b5060408051600280825260608201835260009260208301908036833701905050905081604001518160008151811061021257610212610acf565b60200260200101906001600160a01b031690816001600160a01b03168152505081606001518160018151811061024a5761024a610acf565b6001600160a01b03928316602091820292909201015282516040516338ed173960e01b815260009291909116906338ed173990610293908c908590879030904290600401610b29565b6000604051808303816000875af11580156102b2573d6000803e3d6000fd5b505050506040513d6000823e601f3d908101601f191682016040526102da9190810190610b65565b90508260600151826000815181106102f4576102f4610acf565b60200260200101906001600160a01b031690816001600160a01b03168152505082604001518260018151811061032c5761032c610acf565b60200260200101906001600160a01b031690816001600160a01b03168152505082606001516001600160a01b031663095ea7b384602001518360018151811061037757610377610acf565b60200260200101516040518363ffffffff1660e01b81526004016103b09291906001600160a01b03929092168252602082015260400190565b6020604051808303816000875af11580156103cf573d6000803e3d6000fd5b505050506040513d601f19601f820116820180604052508101906103f39190610aad565b5082602001516001600160a01b03166338ed17398260018151811061041a5761041a610acf565b60200260200101518a8c61042e9190610c21565b8530426040518663ffffffff1660e01b8152600401610451959493929190610b29565b6000604051808303816000875af192505050801561049157506040513d6000823e601f3d908101601f1916820160405261048e9190810190610b65565b60015b6104f95760405162461bcd60e51b815260206004820152602e60248201527f5472616465206e6f742070726f66697461626c652c20726576657274696e672060448201526d3a379039b0bb3290333ab732399760911b60648201526084015b60405180910390fd5b6001600160a01b038b1663095ea7b37f00000000000000000000000000000000000000000000000000000000000000006105338c8e610c21565b6040516001600160e01b031960e085901b1681526001600160a01b03909216600483015260248201526044016020604051808303816000875af115801561057e573d6000803e3d6000fd5b505050506040513d601f19601f820116820180604052508101906105a29190610aad565b506105ad898b610c21565b816001815181106105c0576105c0610acf565b60200260200101511115610684576000546001600160a01b03808d169163a9059cbb91166105ee8c8e610c21565b8460018151811061060157610601610acf565b60200260200101516106139190610c39565b6040516001600160e01b031960e085901b1681526001600160a01b03909216600483015260248201526044016020604051808303816000875af115801561065e573d6000803e3d6000fd5b505050506040513d601f19601f820116820180604052508101906106829190610aad565b505b60019450505050505b9695505050505050565b6000546001600160a01b031633146106de5760405162461bcd60e51b815260206004820152600a60248201526927b7363c9037bbb732b960b11b60448201526064016104f0565b6000546040516370a0823160e01b81523060048201526001600160a01b038381169263a9059cbb9291169083906370a0823190602401602060405180830381865afa158015610731573d6000803e3d6000fd5b505050506040513d601f19601f820116820180604052508101906107559190610c50565b6040516001600160e01b031960e085901b1681526001600160a01b03909216600483015260248201526044016020604051808303816000875af11580156107a0573d6000803e3d6000fd5b505050506040513d601f19601f820116820180604052508101906107c49190610aad565b5050565b604080516001600160a01b038086166020830152808516928201929092528187166060820152908216608082015230908690869060009060a00160408051601f19818403018152908290526310ac2ddf60e21b825291506000906001600160a01b037f000000000000000000000000000000000000000000000000000000000000000016906342b0b77c906108699088908890889088908890600401610c69565b600060405180830381600087803b15801561088357600080fd5b505af1158015610897573d6000803e3d6000fd5b5050505050505050505050505050565b80356001600160a01b03811681146108be57600080fd5b919050565b60008060008060008060a087890312156108dc57600080fd5b6108e5876108a7565b95506020870135945060408701359350610901606088016108a7565b9250608087013567ffffffffffffffff8082111561091e57600080fd5b818901915089601f83011261093257600080fd5b81358181111561094157600080fd5b8a602082850101111561095357600080fd5b6020830194508093505050509295509295509295565b60006020828403121561097b57600080fd5b610984826108a7565b9392505050565b600080600080600060a086880312156109a357600080fd5b6109ac866108a7565b9450602086013593506109c1604087016108a7565b92506109cf606087016108a7565b91506109dd608087016108a7565b90509295509295909350565b634e487b7160e01b600052604160045260246000fd5b604051601f8201601f1916810167ffffffffffffffff81118282101715610a2857610a286109e9565b604052919050565b600060808284031215610a4257600080fd5b6040516080810181811067ffffffffffffffff82111715610a6557610a656109e9565b604052610a71836108a7565b8152610a7f602084016108a7565b6020820152610a90604084016108a7565b6040820152610aa1606084016108a7565b60608201529392505050565b600060208284031215610abf57600080fd5b8151801515811461098457600080fd5b634e487b7160e01b600052603260045260246000fd5b600081518084526020808501945080840160005b83811015610b1e5781516001600160a01b031687529582019590820190600101610af9565b509495945050505050565b85815284602082015260a060408201526000610b4860a0830186610ae5565b6001600160a01b0394909416606083015250608001529392505050565b60006020808385031215610b7857600080fd5b825167ffffffffffffffff80821115610b9057600080fd5b818501915085601f830112610ba457600080fd5b815181811115610bb657610bb66109e9565b8060051b9150610bc78483016109ff565b8181529183018401918481019088841115610be157600080fd5b938501935b83851015610bff57845182529385019390850190610be6565b98975050505050505050565b634e487b7160e01b600052601160045260246000fd5b60008219821115610c3457610c34610c0b565b500190565b600082821015610c4b57610c4b610c0b565b500390565b600060208284031215610c6257600080fd5b5051919050565b600060018060a01b03808816835260208188168185015286604085015260a06060850152855191508160a085015260005b82811015610cb65786810182015185820160c001528101610c9a565b82811115610cc857600060c084870101525b5050601f01601f1916820160c001905061068d608083018461ffff16905256fea26469706673582212208720f08f125638b57172ef26eaf617a239ae4ae2cb042ba6268c5bcc2b6d897764736f6c634300080a0033",
  "linkReferences": {},
  "deployedLinkReferences": {}
}